:020000040800F2
:10000000F85C00207540000899A4000803F400087B
:100010009BA400089FA40008A3A4000800000000FF
:10002000000000000000000000000000A7A400087D
:10003000A9A40008000000008BF300084B79000819
:100040008F400008CBA400088F4000088F400008B4
:100050008F4000088F4000088F4000088F40000844
:100060008F4000088F4000088F4000088F40000834
:100070008F4000088F4000088F4000088F40000824
:100080008F4000088F4000088F4000088F40000814
:100090008F4000088F4000088F4000088F40000804
:1000A0008F4000088F4000088F4000088F400008F4
:1000B0008F4000088F4000088F4000088F400008E4
:1000C0008F4000088F4000088F4000088F400008D4
:1000D0008F400008ABA40008BDA40008BFA400081E
:1000E000C9A400088F4000088F40000800000000ED
:1000F0000000000000000000000000000000000000
:1001000000000000000000008F4000088F40000841
:100110008F4000088F4000088F4000088F40000883
:100120008F4000088F4000088F4000088F40000873
:100130008F400008A59E00088F4000088F400008EF
:100140008F4000088F4000088F400008C1A40008BD
:1001500000F002F800F075F80AA090E8000C824464
:100160008344AAF10107DA4501D100F06AF8AFF241
:10017000090EBAE80F0013F0010F18BFFB1A43F085
:1001800001031847A0610200C06102000A444FF059
:10019000000C10F8013B13F0070408BF10F8014BE6
:1001A0001D1108BF10F8015B641E05D010F8016B2B
:1001B000641E01F8016BF9D113F0080F1EBF10F88F
:1001C000014BAD1C0C1B09D16D1E58BF01F801CBB2
:1001D000FAD505E014F8016B01F8016B6D1EF9D535
:1001E0009142D6D37047000000230024002500264A
:1001F000103A28BF78C1FBD8520728BF30C148BF8A
:100200000B607047642922F05782782922F090828F
:10021000732922F0DA85002070471FB522F0A1FB78
:1002200023F0E6F804000020002124F08FFA401C9F
:1002300060600020002124F073FAE0601FBD10B55B
:1002400010BD23F0B0F81146FFF7E7FF04F0F0F817
:1002500023F024FB03B4FFF7F2FF03BC23F0CAFD35
:100260000B49D1F800C04A685CF8043B1068184498
:1002700042F8040B8C4528BFA1F1DC0C8A4228BF50
:10028000A1F1DC02C1F800C04A6020F000407047D4
:10029000905600200CB50020019000909148006815
:1002A00040F480308F49086000BF8E48006800F439
:1002B000003000900198401C0190009818B90198F6
:1002C000B0F5A06FF1D18748006810F4003F02D06C
:1002D0000120009001E000200090009801285AD1F0
:1002E0008148006840F010007F49086008460068B7
:1002F00020F0030008600846006840F00200086033
:100300007848406877494860084640684860084631
:10031000406840F4806048600846C06A73490840FD
:100320007049C8620846C06A714908436D49C8628D
:100330000846006840F08060086000BF69480068B7
:1003400010F0006FFAD06748406820F47C106549CF
:1003500048600846406840F4E81048600846006875
:1003600040F08070086000BF5E48006810F0007FB9
:10037000FAD05C48406820F003005A4948600846BB
:10038000406840F00200486000BF5648406800F0F6
:100390000C000828F9D10CBD10B5FFF77BFF10BD8C
:1003A00010B55048006840F001004E49086008460A
:1003B0004068504908404B494860084600684E492B
:1003C0000840484908600846006820F4802008601A
:1003D0000846406820F4FE0048600846006820F0A7
:1003E000A05008604FF47F0088600020C862FFF7CB
:1003F000D3FF4FF000604149086010BDF0B5002107
:10040000002000230024002200250026354F7F68AD
:1004100007F00C0121B1042908D008294BD10BE0C9
:10042000374FDFF8E0C0CCF800704AE0364FDFF815
:10043000D4C0CCF8007044E02A4F7F6807F47010F5
:10044000284F7F6807F48033800C0D2801D0801C72
:1004500000E0062033B92D4F4743DFF8A8C0CCF8A1
:10046000007027E01F4FFF6A07F480341D4FFF6ABA
:1004700007F00F077A1C44B9234FB7FBF2F7474345
:10048000DFF880C0CCF8007014E0164FFF6AC7F3A5
:1004900003177D1C134FFF6AC7F30327BE1C1A4FB7
:1004A000B7FBF5F77743B7FBF2F74743DFF854C0E4
:1004B000CCF8007005E0124FDFF848C0CCF80070AF
:1004C00000BF00BF074F7F68C7F30317DFF840C0C6
:1004D0001CF807100B4F3F68CF40DFF828C0CCF85E
:1004E0000070F0BD001002400020024000F0FEFF4E
:1004F000440601000000FFF0FFFFF6FE08ED00E0FB
:1005000000127A000000002040787D0100093D00C3
:1005100004000020F948006840F00100F749086035
:1005200008464068F6490840F449486008460068B3
:10053000F4490840F14908600846006820F480202A
:1005400008600846406820F4FE00486008460068DD
:1005500020F0A05008604FF47F0088600020C8623F
:10056000704710B504462CB1B4F5803F02D0B4F505
:10057000802F00D104E040F21111E3A003F010FE3F
:10058000DE48006820F48030DC49086008460068D6
:1005900020F480200860B4F5803F03D0B4F5802FAC
:1005A0000ED106E0D548006840F48030D349086099
:1005B00007E0D248006840F4A020D049086000E07D
:1005C00000BF00BF10BD2DE9F04104460025002604
:1005D0000027212C17D0312C15D0392C13D0412CC9
:1005E00011D03B2C0FD03D2C0DD0612C0BD07A2C90
:1005F00009D07B2C07D07C2C05D07D2C03D07E2C01
:1006000001D07F2C00D104E040F23551BEA003F0B0
:10061000C7FD6511012D02D1B848066806E0022D1C
:1006200002D1B648066A01E0B448466A04F01F05E4
:100630000120A840304201D0012700E000273846C1
:10064000BDE8F08138B5002000900024002500BFEF
:100650003120FFF7B8FF05460098401C0090009835
:10066000B0F5A06F01D0002DF2D03120FFF7ABFF25
:1006700008B1012400E00024204638BD70B50446CE
:1006800000251F2C00DC04E04FF4A9719EA003F0AC
:1006900087FD9A48056825F0F80545EAC405056018
:1006A00070BD10B504460CB1012C00D104E040F23D
:1006B000651195A003F074FDA248046010BD70B5EB
:1006C00005460C46002615B1B5F5803F00D104E083
:1006D00040F27F118CA003F063FDB4F5002F11D020
:1006E000B4F5402F0ED0B4F5801F0BD0B4F5A01F89
:1006F00008D0B4F5C01F05D0B4F5E01F02D0B4F5A2
:10070000501F00D104E04FF4C0717FA003F048FDFA
:100710007A48466826F4741645EA0400064377488A
:10072000466070BD10B504460CB1012C00D104E048
:100730004FF4CA7174A003F033FD8248046610BD03
:1007400070B505460C46002615B1B5F5803F00D1C1
:1007500004E040F2AF116CA003F022FDECB1012CDB
:100760001BD0022C19D0032C17D0042C15D0052C2B
:1007700013D0062C11D0072C0FD0082C0DD0092C2B
:100780000BD00A2C09D00B2C07D00C2C05D00D2C2B
:1007900003D00E2C01D00F2C00D104E04FF4D871FF
:1007A00059A003F0FDFC5548C66A6748064045EA73
:1007B000040006435148C66270BD70B5044600256A
:1007C000ECB1102C1BD0202C19D0302C17D0402C81
:1007D00015D0502C13D0602C11D0702C0FD0802C41
:1007E0000DD0902C0BD0A02C09D0B02C07D0C02C51
:1007F00005D0D02C03D0E02C01D0F02C00D104E0A7
:1008000040F2CB1140A003F0CBFC3C48C56A25F078
:10081000F0052543C56270BD70B504460025B4F5EA
:10082000C06F17D0B4F5E06F14D0B4F5006F11D0DD
:10083000B4F5106F0ED0B4F5206F0BD0B4F5306F57
:1008400008D0B4F5406F05D0B4F5606F02D0B4F5B0
:10085000706F00D104E04FF4F2712BA003F0A0FC04
:100860002648C56A25F470652543C56270BD10B57C
:1008700004460CB1012C00D104E04FF4FE7122A01B
:1008800003F08EFC2F48846610BD70B50446002529
:10089000B4F5C04F17D0B4F5E04F14D0B4F5004F05
:1008A00011D0B4F5104F0ED0B4F5204F0BD0B4F5E5
:1008B000304F08D0B4F5404F05D0B4F5604F02D0AA
:1008C000B4F5704F00D104E04FF404710EA003F0B2
:1008D00067FC0A48C56A25F470452543C56270BDAA
:1008E00010B504460CB1012C00D104E040F22621E1
:1008F00005A003F055FC1348046710BD001002402A
:100900000000FFF0FFFFF6FE4C69627261726965DC
:10091000735C53544D3332463130785F53746450B6
:1009200065726970685F4472697665725C73726340
:100930005C73746D3332663130785F7263632E633B
:100940000000000000004242F0FFFEFF70B50446C8
:1009500000251CB1012C01D0022C00D105E04FF480
:100960000E71AFF25C0003F01BFCF748456825F000
:1009700003052543456070BDF348406800F00C0056
:10098000704770B5044600257CB1802C0DD0902CAA
:100990000BD0A02C09D0B02C07D0C02C05D0D02C67
:1009A00003D0E02C01D0F02C00D105E04FF41971F8
:1009B000AFF2AC0003F0F4FBE348456825F0F00526
:1009C0002543456070BD70B5044600255CB1B4F5A3
:1009D000806F08D0B4F5A06F05D0B4F5C06F02D019
:1009E000B4F5E06F00D105E040F27E21AFF2E800FF
:1009F00003F0D6FBD448456825F4E06525434560FF
:100A000070BD70B5044600255CB1B4F5806F08D0A8
:100A1000B4F5A06F05D0B4F5C06F02D0B4F5E06FA7
:100A200000D105E04FF42671AFF2241003F0B8FBBB
:100A3000C548456825F4605545EAC405456070BD64
:100A400070B504460D4614F0800F01D104B105E0E5
:100A500040F2BF21AFF2501003F0A2FB0DB1012D07
:100A600000D105E04FF43071AFF2641003F098FB51
:100A70002DB1B548407A2043B349487204E0B248EA
:100A8000407AA043B049487270BD10B504460CB11D
:100A9000012C00D105E040F2ED21AFF2941003F0FB
:100AA0007FFBAA48046010BD70B50446002544B120
:100AB000B4F5804F05D0B4F5004F02D0B4F5404FE7
:100AC00000D105E040F20231AFF2C41003F068FB40
:100AD0009D48456825F440452543456070BD10B5E7
:100AE00004460CB1012C00D105E040F21B31AFF2FD
:100AF000E81003F055FB9648046010BD10B504469D
:100B00000CB1012C00D105E040F22E31AFF20820EB
:100B100003F046FB8E48001D046010BD10B504466E
:100B20001CB1012C01D0042C00D105E04FF4507110
:100B3000AFF22C2003F034FB002086490870824974
:100B400081F82000012C02D0042C08D103E0012000
:100B50008049087004E005207E49087000E000BF6D
:100B600000BF10BD10B504460CB1012C00D105E04A
:100B700040F26131AFF2702003F012FB764804605E
:100B800010BD10B50446B4F5807F05D0B4F5007FE4
:100B900002D0B4F5407F00D105E040F27231AFF2EF
:100BA000982003F0FDFA6848006A2043664908620D
:100BB00010BD10B504460CB1012C00D105E04FF476
:100BC0006071AFF2BC2003F0EBFA63484438046074
:100BD00010BD2DE9F0410021002200250023002650
:100BE000002400278C46DFF86081D8F8048008F0E4
:100BF0000C0121B1042907D0082959D109E0DFF8F7
:100C00005C81C0F8008058E0DFF85481C0F80080B3
:100C100053E0DFF83481D8F8048008F47012DFF86C
:100C20002881D8F8048008F48035920C0D2A01D070
:100C3000921C00E0062235B9DFF8288102FB08F893
:100C4000C0F8008033E0DFF80081D8F82C8008F489
:100C50008036DFF8F480D8F82C8008F00F0808F10F
:100C6000010446B9DFF8F880B8FBF4F808FB02F895
:100C7000C0F800801BE0DFF8D080D8F82C80C8F3E3
:100C8000031808F10107DFF8C080D8F82C80C8F3FA
:100C9000032808F1020CDFF8C880B8FBF7F808FB5E
:100CA0000CF8B8FBF4F808FB02F8C0F8008004E088
:100CB000DFF8A880C0F8008000BF00BFDFF88880A0
:100CC000D8F8048008F0F0010909DFF89C8018F8D2
:100CD0000130D0F8008028FA03F8C0F80480DFF86B
:100CE0006880D8F8048008F4E061090ADFF87880A9
:100CF00018F80130D0F8048028FA03F8C0F808800A
:100D0000DFF84480D8F8048008F46051C90ADFF89D
:100D1000588018F80130D0F8048028FA03F8C0F899
:100D20000C80DFF82480D8F8048008F44041890B57
:100D3000DFF8388018F80130D0F80C80B8FBF3F8F1
:100D4000C0F81080BDE8F08100100240D800424297
:100D5000C4054242201002408004424200127A0040
:100D600040787D0100093D0014000020240000208F
:100D700070B504460D46A948044201D104B105E00E
:100D800040F22B41AFF2804003F00AFA0DB1012D81
:100D900000D105E040F22C41AFF2944003F000FA9C
:100DA0002DB19F48406920439D49486104E09C481B
:100DB0004069A0439A49486170BD70B504460D462C
:100DC0009848044201D104B105E040F24A41AFF233
:100DD000C84003F0E5F90DB1012D00D105E040F266
:100DE0004B41AFF2DC4003F0DBF92DB18C48806958
:100DF00020438B49886104E089488069A043884981
:100E0000886170BD70B504460D468748044201D123
:100E100004B105E040F26941AFF2145003F0C0F9AB
:100E20000DB1012D00D105E040F26A41AFF228502A
:100E300003F0B6F92DB17A48C06920437849C861FA
:100E400004E07748C069A0437549C86170BD70B5BA
:100E500004460D4634F4A04001D104B105E040F24F
:100E60008441AFF25C5003F09BF90DB1012D00D12C
:100E700005E040F28541AFF2705003F091F92DB1D9
:100E80006748806A20436649886204E06448806A53
:100E9000A0436349886270BD70B504460D46614841
:100EA000044201D104B105E040F2A441AFF2A850E0
:100EB00003F076F90DB1012D00D105E040F2A54116
:100EC000AFF2BC5003F06CF92DB15548C068204317
:100ED0005349C86004E05248C068A0435049C86004
:100EE00070BD70B504460D464F48044201D104B1AF
:100EF00005E040F2C341AFF2F05003F051F90DB1FB
:100F0000012D00D105E040F2C441AFF2046003F0CE
:100F100047F92DB14248006920434149086104E086
:100F20003F480069A0433E49086170BD10B50446C2
:100F30000CB1012C00D105E04FF49B61AFF2386099
:100F400003F02EF93948046010BD10B504460CB109
:100F5000012C00D105E040F2E541AFF2546003F00E
:100F60001FF93348C46410BD10B504467CB1052C8C
:100F70000DD0042C0BD0062C09D0072C07D0082C40
:100F800005D0092C03D00A2C01D00B2C00D105E090
:100F900040F20551AFF2906003F002F900214FF0EA
:100FA000201001F08BFA1E48C47110BD1C48406A25
:100FB00040F080701A494862704770B504460025B9
:100FC000012C0DD0022C0BD0042C09D0082C07D0FA
:100FD000102C05D0802C03D0202C01D0402C00D127
:100FE00005E040F27F51AFF2E06003F0D9F80C4821
:100FF0008068204201D0012500E00025284670BD10
:1010000010B5044604B105E040F2AC51AFF20870EF
:1010100003F0C6F80248847210BD0000A82FFEFF3E
:10102000001002400200C0FF00360181400442422D
:101030000000424210B501210807FFF752FF0021CE
:101040004FF08050FFF74DFF10BD10B504460CB1B6
:10105000012C00D103E07F2155A003F0A1F86348E3
:10106000046210BD10B504460CB1012C00D103E0A0
:101070008C214FA003F094F85C48046110BD70B55A
:10108000044600256CB1202C0BD0402C09D0602CDC
:1010900007D0802C05D0A02C03D0C02C01D0E02C90
:1010A00000D103E0A22142A003F07AF8504805687D
:1010B00025F0E0052543056070BD10B504460CB170
:1010C000012C00D103E0B52139A003F069F84948AB
:1010D000046010BD70B504460D4600260CB1012C0D
:1010E00000D103E0C92132A003F05AF8012D01D04C
:1010F000022D00D103E0CA212DA003F051F83C4895
:10110000066826F00306264306603B48006840F068
:10111000040039490860012D01D130BF00E020BF33
:101120003548006820F004003349086070BD30483D
:10113000006840F004002E4908600846006840F04E
:10114000020008602C48006840F004002A4908604A
:1011500000BF00BF30BF704770B504460025012CAA
:1011600003D0022C01D0042C00D104E040F209117C
:101170000FA003F015F81E484068204201D0012559
:1011800000E00025284670BD10B50446012C01D0B2
:10119000022C00D104E04FF4917105A003F000F897
:1011A0001348006840EA84001149086010BD00003F
:1011B0004C69627261726965735C53544D33324697
:1011C0003130785F5374645065726970685F44723F
:1011D000697665725C7372635C73746D3332663109
:1011E00030785F7077722E630000000000000E42BE
:1011F00000700040A0000E4210ED00E00020A74962
:101200000860091D0860091D0860091D0860A448E0
:10121000A24914310860704770B504460025207952
:1012200010B12079042800D103E06A219DA002F0CA
:10123000B7FF6079082805D060790C2802D0607962
:10124000102800D103E06B2196A002F0A9FF2068CE
:10125000000D000502D1206800B103E06C2191A0CF
:1012600002F09EFFA07910B1A079012800D103E01F
:101270006D218CA002F094FF884DA07990B3284690
:1012800000682168884329460860081D00682168B5
:101290008843291D0860207905442868216808438F
:1012A00028607E4808300068216888437B490831FF
:1012B0000860081D00682168884378490C3108607F
:1012C000607910280FD1081F00682168084373490E
:1012D00008310860081D0068216808436F490C3117
:1012E00008600EE007E06D4D6079054428682168CC
:1012F0000843286005E02079054428682168884370
:10130000286070BD0021016001710C214171002134
:101310008171704710B50446200D000501D104B15C
:1013200003E0AE215FA002F03BFF5C481030006894
:1013300020435A491031086010BD70B5044600259D
:10134000012C31D0022C2FD0042C2DD0082C2BD0E6
:10135000102C29D0202C27D0402C25D0802C23D015
:10136000B4F5807F20D0B4F5007F1DD0B4F5806F38
:101370001AD0B4F5006F17D0B4F5805F14D0B4F56F
:10138000005F11D0B4F5804F0ED0B4F5004F0BD0F4
:10139000B4F5803F08D0B4F5003F05D0B4F5802FF8
:1013A00002D0B4F5002F00D103E0BE213DA002F031
:1013B000F7FE3A4814300068204201D0012500E0D1
:1013C0000025284670BD10B50446200D000501D14A
:1013D00004B103E0D42133A002F0E2FE2F48143020
:1013E000046010BD70B5044600250026012C31D0E4
:1013F000022C2FD0042C2DD0082C2BD0102C29D02F
:10140000202C27D0402C25D0802C23D0B4F5807FF1
:1014100020D0B4F5007F1DD0B4F5806F1AD0B4F59C
:10142000006F17D0B4F5805F14D0B4F5005F11D011
:10143000B4F5804F0ED0B4F5004F0BD0B4F5803F1B
:1014400008D0B4F5003F05D0B4F5802F02D0B4F534
:10145000002F00D103E0E52112A002F0A1FE0F4809
:10146000006800EA04060D4814300068204202D0EB
:101470000EB1012500E00025284670BD10B50446D8
:10148000200D000501D104B103E0FC2105A002F00C
:1014900087FE02481430046010BD000000040140C3
:1014A000FFFF0F004C69627261726965735C53548F
:1014B0004D3332463130785F5374645065726970D1
:1014C000685F4472697665725C7372635C73746D95
:1014D0003332663130785F657874692E63000000BE
:1014E00010B50446A4F5AA40553800D004B903E06D
:1014F0005F2124A002F054FE3148046010BD10B5F5
:1015000004465CB1012C09D0022C07D0032C05D075
:10151000042C03D0052C01D0062C00D103E073214C
:1015200018A002F03DFE2648446010BD10B50446E8
:10153000B4F5805F00DA03E0802112A002F030FEF3
:101540001F48846010BD4AF6AA201D4908607047F4
:101550004CF6CC401A490860704770B50446002527
:10156000012C01D0022C00D103E0A52105A002F03E
:1015700017FE1348C068204201D0012500E0002575
:10158000284670BD4C69627261726965735C535420
:101590004D3332463130785F5374645065726970F0
:1015A000685F4472697665725C7372635C73746DB4
:1015B0003332663130785F697764672E63000000EC
:1015C0000030004070B5044600251CB1012C01D04C
:1015D000022C00D104E040F20311F1A002F0E0FD82
:1015E000FE48056805F038052543056070BD10B557
:1015F0000446082C00D004B904E04FF48E71E8A032
:1016000002F0CEFDF548006820F00800F3490860BC
:10161000084600682043086010BD10B50446102C31
:1016200000D004B904E040F22F11DDA002F0B8FDB3
:10163000EA48006820F01000E849086008460068A1
:101640002043086010BDE648E4494860E54848602A
:101650007047E348E1494860E24848607047DF4826
:10166000006940F08000DD4908617047DB4800698F
:1016700040F08000D949086170470420D749C96803
:1016800011F0010F01D001200EE0D449C96811F01A
:10169000040F01D0022007E0D049C96811F0100FF3
:1016A00001D0032000E00420704700B50246042367
:1016B000FFF7E3FF034603E0FFF7DFFF0346521E99
:1016C000012B01D1002AF7D102B90523184600BD2C
:1016D00070B504460425B4F1006F03D3C2488442B8
:1016E00000D204E040F2A711ADA002F059FD4FF482
:1016F0003020FFF7DAFF0546042D17D1B7480069FF
:1017000040F00200B549086108464461006940F0B4
:10171000400008614FF43020FFF7C7FF0546AF488F
:10172000006941F6FD710840AC490861284670BD6A
:1017300010B504244FF43020FFF7B7FF0446042C03
:1017400016D1A648006940F00400A4490861084683
:10175000006940F0400008614FF43020FFF7A5FF1A
:1017600004469E48006941F6FB7108409B490861A8
:10177000204610BD00B502460423FFF77EFF034656
:1017800003E0FFF77AFF0346521E012B01D1002A26
:10179000F7D102B90523184600BD10B504244FF453
:1017A0003020FFF7E7FF0446042C16D18B48006970
:1017B00040F00400894908610846006940F0400093
:1017C00008614FF43020FFF7D5FF044683480069D5
:1017D00041F6FB71084081490861204610BD002098
:1017E0007E49C96911F0020F01D0012000E00020FC
:1017F000704730B5A5250424FFF7F1FF00B100259F
:101800004FF43020FFF751FF0446042C3AD17448BE
:1018100072498860734888600846006940F020007B
:1018200008610846006940F0400008614FF430202C
:10183000FFF73BFF0446042C1BD16848006941F6C2
:10184000DF710840654908610846006940F01000F2
:10185000086166480580E002FFF727FF0446052C73
:1018600010D05E48006941F6EF7108405B4908619D
:1018700008E0052C06D05948006941F6EF71084090
:1018800056490861204630BDF8B504460D46042689
:1018900000200090B4F1006F03D35348844200D27B
:1018A00004E040F2AF213EA002F07AFC4FF4005079
:1018B000FFF7FBFE0646042E24D14848006940F09D
:1018C0000100464908612580F002FFF7EEFE06465A
:1018D000042E10D1A01C0090280C00990880F00262
:1018E000FFF7E3FE06463D48006941F6FE710840F9
:1018F0003A49086106E03948006941F6FE7108403E
:10190000364908613046F8BD70B504460D460426D8
:10191000B4F1006F03D33448844200D204E040F2B3
:101920005E311FA002F03CFC4FF40050FFF7BDFEFB
:101930000646042E11D12948006940F001002749CC
:1019400008612580F002FFF7B0FE064623480069D3
:1019500041F6FE71084021490861304670BD70B5FE
:1019600004460E4604252148001D844202D0801CF6
:10197000844200D104E040F2A53109A002F010FC3D
:101980004FF40050FFF791FE0546042D41D1144855
:1019900012498860134888600846006928E0000002
:1019A0004C69627261726965735C53544D3332469F
:1019B0003130785F5374645065726970685F447247
:1019C000697665725C7372635C73746D3332663111
:1019D00030785F666C6173682E63000000200240FF
:1019E00023016745AB89EFCDFFFF0F0800F8FF1F0C
:1019F00040F0100008612680E802FFF756FE054619
:101A0000052D06D0D048006941F6EF710840CE4957
:101A10000861284670BD2DE9F04704464FF6FF7671
:101A20003746B046B146042504B105E040F2D63150
:101A3000AFF2940002F0B4FBE443E6B2C4F307272C
:101A4000C4F307484FEA14694FF40050FFF72DFE26
:101A50000546042D3FD1BD48BB498860BC4888601D
:101A60000846006940F010000861FF2E05D0B94813
:101A70000680E802FFF719FE0546042D08D1FF2F66
:101A800006D0B448801C0780E802FFF70EFE05462A
:101A9000042D0AD1B8F1FF0F07D0AE48001DA0F801
:101AA0000080E802FFF701FE0546042D0AD1B9F1D6
:101AB000FF0F07D0A748801DA0F80090E802FFF7AD
:101AC000F4FD0546052D06D09F48006941F6EF71EB
:101AD00008409D4908612846BDE8F08770B5054675
:101AE00004240DB1012D00D105E040F21D41AFF2FB
:101AF000501002F055FB4FF43020FFF7D6FD04469E
:101B0000042C43D1914890498860914888600846E8
:101B1000006940F0200008610846006940F040007C
:101B200008614FF43020FFF7C0FD0446042C24D197
:101B30008548006941F6DF7108408349086108461D
:101B4000006940F01000086125B100208149083982
:101B5000088003E0A5207F49083908804FF4302031
:101B6000FFF7A3FD0446052C10D07748006941F625
:101B7000EF7108407449086108E0052C06D07248EE
:101B8000006941F6DF7108406F490861204670BD69
:101B90002DE9F04104460D4616460427012C00D0DD
:101BA00004B905E040F26341AFF20C2002F0F8FA0C
:101BB000022D00D005B905E040F26441AFF22020CB
:101BC00002F0EEFA042E00D006B905E040F26541BD
:101BD000AFF2342002F0E4FA5C485B4988605C486C
:101BE00088604FF40050FFF760FD0746042F19D1BD
:101BF0005548006940F010005349086146F0F8006C
:101C0000284320435349891F0880F802FFF74DFD00
:101C10000746052F06D04C48006941F6EF71084091
:101C2000494908613846BDE8F0814748C0698008E5
:101C300070474548006A704700204349096811F021
:101C4000200F01D0012000E00020704770B504464D
:101C50000D4634F4A05001D104B105E040F22D51FD
:101C6000AFF2C42002F09CFA0DB1012D00D105E0C5
:101C700040F22E51AFF2D82002F092FA2DB1324844
:101C8000006920433049086104E02F480069A043FF
:101C90002D49086170BD70B504460025012C0FD098
:101CA000202C0DD0042C0BD0102C09D0012C07D0E7
:101CB000202C05D0042C03D0102C01D0012C00D1F5
:101CC00005E040F27A51AFF2283002F069FA012CB7
:101CD00008D11D48C06910F0010F01D0012508E0AE
:101CE000002506E01848C068204201D0012500E028
:101CF0000025284670BD10B5044634F0350001D1EA
:101D000004B105E040F2B651AFF26C3002F048FA8F
:101D10000D48C46010BD04200B49C96811F0010FC3
:101D200001D001200EE00849C96811F0040F01D06C
:101D3000022007E00449C96811F0100F01D0032008
:101D400000E00420704700000020024023016745A6
:101D5000AB89EFCD08F8FF1F10B50446FC4884425C
:101D600011D0FC4884420ED0FB4884420BD0FB4883
:101D7000844208D0FA48844205D0FA48844202D00E
:101D8000F948844200D103E06F21F8A002F008FA7C
:101D9000EF48844208D101210420FFF77DF800219B
:101DA0000420FFF779F846E0EA48844208D101218F
:101DB0000820FFF771F800210820FFF76DF83AE0DE
:101DC000E548844208D101211020FFF765F8002181
:101DD0001020FFF761F82EE0E048844208D101218D
:101DE0002020FFF759F800212020FFF755F822E0C6
:101DF000DB48844208D101214020FFF74DF8002143
:101E00004020FFF749F816E0D648844208D1012166
:101E10008020FFF741F800218020FFF73DF80AE01D
:101E2000D148844207D101218015FFF735F8002100
:101E3000A015FFF731F810BD10B501210846FFF7D6
:101E40002BF800210120FFF727F810BD2DE9F05FE6
:101E500005460C464FF00009CA4600260027B0464A
:101E6000B346BB48854211D0BA4885420ED0BA4825
:101E700085420BD0B948854208D0B948854205D083
:101E8000B848854202D0B848854200D103E0B2216B
:101E9000B6A002F085F9E078A0B1E078042811D06E
:101EA000E07828280ED0E07848280BD0E078142875
:101EB00008D0E078102805D0E0781C2802D0E0781F
:101EC000182800D103E0B321A8A002F069F900208E
:101ED00010B9208800B103E0B421A4A002F060F999
:101EE000E07800F00F09E07810F0100F10D0A07823
:101EF000012805D0A078022802D0A078032800D1BC
:101F000003E0BB2199A002F04BF9A07840EA09094F
:101F1000207838B3D5F8008000261FE0012000FAB1
:101F200006F7208800EA070ABA4516D1B7000F2045
:101F300000FA07FB28EA0B0809FA07F040EA08084C
:101F4000E078282803D10120B040686105E0E078FE
:101F5000482802D10120B0402861761C082EDDD32C
:101F6000C5F800802088FF282BDDD5F804800026E6
:101F700023E006F10800012101FA00F7208800EAB9
:101F8000070ABA4518D1B7000F2000FA07FB28EA64
:101F90000B0809FA07F040EA0808E078282803D17E
:101FA00006F1080081406961E078482804D106F113
:101FB0000800012181402961761C082ED9D3C5F87B
:101FC0000480BDE8F09F4FF6FF710180022181700F
:101FD0000421C170704770B505460C4600265C4868
:101FE000854211D05B4885420ED05B4885420BD0BC
:101FF0005A48854208D05A48854205D059488542FA
:1020000002D05948854200D104E04FF48F7157A0A7
:1020100002F0C6F8012C25D0022C23D0042C21D0AC
:10202000082C1FD0102C1DD0202C1BD0402C19D0D8
:10203000802C17D0B4F5807F14D0B4F5007F11D078
:10204000B4F5806F0ED0B4F5006F0BD0B4F5805F9F
:1020500008D0B4F5005F05D0B4F5804F02D0B4F5D8
:10206000004F00D104E040F21F1140A002F098F8A8
:10207000A868204201D0012600E00026304670BD4D
:1020800010B504463248844211D0324884420ED002
:10209000314884420BD03148844208D030488442D1
:1020A00005D03048844202D02F48844200D104E059
:1020B0004FF49A712DA002F073F8A06880B210BDA1
:1020C00070B505460C4600262148854211D02148AE
:1020D00085420ED0204885420BD02048854208D04A
:1020E0001F48854205D01F48854202D01E488542C0
:1020F00000D104E04FF4A2711CA002F051F8012CB1
:1021000025D0022C23D0042C21D0082C1FD0102C39
:102110001DD0202C1BD0402C19D0802C17D0B4F50A
:10212000807F14D0B4F5007F11D0B4F5806F0ED04D
:10213000B4F5006F0BD0B4F5805F08D0B4F5005F44
:1021400005D0B4F5804F02D0B4F5004F2CD131E06A
:1021500000080140000C0140001001400014014043
:1021600000180140001C0140002001404C696272CF
:1021700061726965735C53544D3332463130785F18
:102180005374645065726970685F447269766572F1
:102190005C7372635C73746D3332663130785F6781
:1021A00070696F2E6300000040F24511AFF24400E9
:1021B00001F0F6FFE868204201D0012600E0002689
:1021C000304670BD10B50446FE48844211D0FE482A
:1021D00084420ED0FD4884420BD0FD48844208D092
:1021E000FC48844205D0FC48844202D0FB4884422B
:1021F00000D105E04FF4AD71AFF2900001F0D0FFD7
:10220000E06880B210BD70B504460D46ED488442CA
:1022100011D0ED4884420ED0EC4884420BD0EC48FB
:10222000844208D0EB48844205D0EB48844202D077
:10223000EA48844200D105E040F26911AFF2D400CF
:1022400001F0AEFF002008B905B105E04FF4B5710B
:10225000AFF2E80001F0A4FF256170BD70B504463F
:102260000D46D848844211D0D74884420ED0D74872
:1022700084420BD0D648844208D0D648844205D048
:10228000D548844202D0D548844200D105E040F2CE
:102290007911AFF2281001F083FF002008B905B1D1
:1022A00005E04FF4BD71AFF23C1001F079FF6561BC
:1022B00070BD70B505460C461646C248854211D021
:1022C000C14885420ED0C14885420BD0C0488542E6
:1022D00008D0C048854205D0BF48854202D0BF48DB
:1022E000854200D105E040F28D11AFF2801001F07F
:1022F00057FF012C25D0022C23D0042C21D0082CF0
:102300001FD0102C1DD0202C1BD0402C19D0802C7D
:1023100017D0B4F5807F14D0B4F5007F11D0B4F598
:10232000806F0ED0B4F5006F0BD0B4F5805F08D08D
:10233000B4F5005F05D0B4F5804F02D0B4F5004F7E
:1023400000D105E04FF4C771AFF2E01001F028FFB3
:102350000EB1012E00D105E040F28F11AFF2F41062
:1023600001F01EFF0EB12C6100E06C6170BD70B514
:1023700004460D469348844211D0934884420ED0BF
:10238000924884420BD09248844208D091488442BB
:1023900005D09148844202D09048844200D105E0A3
:1023A0004FF4D271AFF23C2001F0FAFEE56070BD4F
:1023B00070B504460D464FF480368248844211D0F1
:1023C000814884420ED0814884420BD080488442A8
:1023D00008D08048844205D07F48844202D07F489C
:1023E000844200D105E040F2B511AFF2802001F047
:1023F000D7FE002008B905B105E04FF4DB71AFF25C
:10240000942001F0CDFE2E43A661A561A661A669C8
:10241000A66970BD70B505460C4600263DB1012D7C
:1024200005D0022D03D0032D01D0042D00D105E0ED
:102430004FF4E971AFF2CC2001F0B2FEECB1012C07
:102440001BD0022C19D0032C17D0042C15D0052C2E
:1024500013D0062C11D0072C0FD0082C0DD0092C2E
:102460000BD00A2C09D00B2C07D00C2C05D00D2C2E
:1024700003D00E2C01D00F2C00D105E040F2D31177
:10248000AFF2183001F08CFE554806684FF68070A8
:10249000064046EA051626435148066070BD10B551
:1024A00004460CB1012C00D105E04FF4F371AFF2FA
:1024B000443001F075FE4B48C46110BD2DE9F04772
:1024C00004460E460027B8460025A946012C77D0C1
:1024D000022C75D0042C73D0082C71D0A4F5A01058
:1024E00010386DD020386BD0A4F5B010403867D0CC
:1024F000803865D03C48844262D03C4884425FD0FA
:102500003B4884425CD03B48844259D03A4884429C
:1025100056D0B4F5805F53D0B4F5EA1F50D0B4F56F
:10252000EB1F4DD0B4F5004F4AD03448844247D019
:10253000A4F50010801E7CD0801E7AD0001F78D0B9
:10254000083876D0B4F1201F73D0303871D02C48C1
:1025500084426ED02B4884426BD02B48844268D092
:102560002A48844265D02A48844262D0B4F5011FCB
:102570005FD0284884425CD0401C844259D0801CE3
:10258000844256D0001D844253D022480F308442EA
:102590004FD020481F3084424BD01E483F308442E9
:1025A00047D01C487F30844243D01A48FF308442D1
:1025B0003FD0194884423CD01848844239D02FE09B
:1025C00037E0000000080140000C0140001001400D
:1025D0000014014000180140001C0140002001408F
:1025E0000000014000002042000118000002180015
:1025F0000003180000081A00000C1A000100200057
:102600000001300000023000000430000011200002
:1026100000202000010000800002008000040080F3
:102620006348844205D06348844202D062488442B1
:1026300000D105E040F22A21AFF2D04001F0B0FD18
:102640000EB1012E00D105E040F22B21AFF2E440A3
:1026500001F0A6FD04F00040B0F1004F02D1574850
:10266000C56901E055484568C4F30349A7B204F4BD
:102670004010B0F5401F08D125F070654F48406804
:1026800020F070604D49486013E004F48010B0F50C
:10269000801F07D1032000FA09F825EA080545F054
:1026A000706506E0600D000107FA00F0854345F013
:1026B000706526B1600D010107FA01F0054304F0D1
:1026C0000040B0F1004F02D13C48C56101E03B48F9
:1026D0004560BDE8F08770B505460C4600265DB143
:1026E000012D09D0022D07D0032D05D0042D03D0D4
:1026F000052D01D0062D00D105E040F26521AFF295
:10270000945001F04DFDECB1012C1BD0022C19D0DE
:10271000032C17D0042C15D0052C13D0062C11D067
:10272000072C0FD0082C0DD0092C0BD00A2C09D067
:102730000B2C07D00C2C05D00D2C03D00E2C01D067
:102740000F2C00D105E040F26621AFF2E05001F01D
:1027500027FDA007010F0F2000FA01F617480830E7
:10276000A11050F82100B04314490831A21041F8DB
:1027700022000846A11050F82100A107090F05FA10
:1027800001F108430D490831A21041F8220070BD43
:1027900010B504460CB1012C00D105E04FF41E71B8
:1027A000AFF2386001F0FCFC0548046010BD000089
:1027B0000008008000100080002000800000014020
:1027C000DC00204210B50446FE4884420BD0FE488F
:1027D000844208D0FD48844205D0FD48844202D09E
:1027E000FC48844200D103E08521FBA001F0D8FC25
:1027F000F448844209D101218803FEF74DFB0021F2
:102800004FF48040FEF748FB32E0EF48844209D1A4
:1028100001214804FEF765FB00214FF40030FEF76C
:1028200060FB25E0E948844209D101218804FEF7D4
:1028300058FB00214FF48020FEF753FB18E0E448DA
:10284000844209D10121C804FEF74BFB00214FF45B
:102850000020FEF746FB0BE0DE48844208D1012150
:102860000805FEF73EFB00214FF48010FEF739FB10
:1028700010BD2DE9F04786B005460C460026B2464D
:1028800000BFB1460027CF4885420BD0CE488542D5
:1028900008D0CE48854205D0CD48854202D0CD48EB
:1028A000854200D103E0B821CBA001F079FC20687B
:1028B00020B1D8492068884200D203E0B921C6A0DF
:1028C00001F06EFCA08818B1A088B0F5805F00D13F
:1028D00003E0BA21C0A001F063FCE08858B1E088B1
:1028E000B0F5805F07D0E088B0F5005F03D0E088E6
:1028F000B0F5405F00D103E0BB21B7A001F050FC70
:10290000208938B12089B0F5806F03D02089B0F5D7
:10291000C06F00D103E0BC21AFA001F041FC608991
:102920004FF6F371084202D1608900B103E0BD2186
:10293000A9A001F035FCA08958B1A089B0F5807F2D
:1029400007D0A089B0F5007F03D0A089B0F5407F03
:1029500000D103E0BE21A0A001F022FCA08968B153
:102960009848854205D09848854202D097488542CC
:1029700000D103E0C22198A001F012FC2F462E8A5C
:102980004CF6FF700640E08806432E82AE894EF674
:10299000F3100640A0882189084361890843064353
:1029A000AE81AE8A4FF6FF400640A0890643AE8254
:1029B00001A8FEF70EF98348874202D1DDF810A086
:1029C00001E0DDF80CA0A88910F4004F08D00AEB54
:1029D000CA0000EB0A1021684900B0FBF1F807E0DB
:1029E0000AEBCA0000EB0A1021688900B0FBF1F87D
:1029F0006420B8FBF0F006013009642101FB108966
:102A0000A88910F4004F08D0322000EBC900B0FBB9
:102A1000F1F000F00700064308E0322000EB091057
:102A20006421B0FBF1F000F00F0006432E8106B0E8
:102A3000BDE8F0874FF41651016000218180C1800C
:102A400001810C21418100218181704770B50546CB
:102A50000C4600265B48854205D05B48854202D083
:102A60005A48854200D104E04FF499715AA001F010
:102A700097FB208818B12088B0F5006F00D104E0E2
:102A800040F2331154A001F08BFB608818B16088CC
:102A9000B0F5806F00D104E04FF49A714EA001F0C0
:102AA0007FFBA08818B1A088B0F5007F00D104E0BA
:102AB00040F2351148A001F073FBE08818B1E088BE
:102AC000B0F5807F00D104E04FF49B7142A001F08B
:102AD00067FB2E8A4FF2FF0006402088618808437A
:102AE000A1880843E188084306432E8270BD002177
:102AF000018041808180C180704770B504460D46D9
:102B0000304884420BD03048844208D02F48844259
:102B100005D02F48844202D02E48844200D104E0E0
:102B20004FF4B1712CA001F03BFB0DB1012D00D190
:102B300004E040F2631128A001F032FB25B1A08926
:102B400040F40050A08104E0A0894DF6FF710840D8
:102B5000A08170BD2DE9F04705460C4617464FF0A1
:102B60000008C246C1460026164885420BD01648CA
:102B7000854208D01548854205D01548854202D0C7
:102B80001448854200D104E040F2891112A001F0FE
:102B900007FB282C43D0A4F5E06027383FD0A4F5EC
:102BA000C06026383BD0A4F5A060253837D0A4F506
:102BB0008060243833D0A4F5006046382FD0B0F5BB
:102BC000927029E000380140004400400048004075
:102BD000004C0040005000404C69627261726965AF
:102BE000735C53544D3332463130785F53746450C4
:102BF00065726970685F4472697665725C7372634E
:102C00005C73746D3332663130785F7573617274E2
:102C10002E63000021AA440001D0602C00D105E001
:102C20004FF4C571AFF2500001F0BAFA0FB1012FA5
:102C300000D105E040F28B11AFF2640001F0B0FA70
:102C4000A4F510606A380FD1F948854205D0F948DB
:102C5000854202D0F848854200D105E040F28F114C
:102C6000AFF28C0001F09CFA2E46C4F3421804F037
:102C70001F0A012000FA0AF9B8F1010F01D10C3640
:102C800005E0B8F1020F01D1103600E0143627B18B
:102C9000306840EA0900306003E0306820EA09004B
:102CA0003060BDE8F08770B504460D461646E04832
:102CB00084420BD0DF48844208D0DF48844205D0EC
:102CC000DE48844202D0DE48844200D105E040F272
:102CD000C311AFF2FC0001F063FA4FF63F700542FA
:102CE00001D105B105E04FF4E271AFF2141001F02B
:102CF00057FA0EB1012E00D105E040F2C511AFF236
:102D0000281001F04DFA1EB1A08A2843A08202E0EB
:102D1000A08AA843A08270BD70B504460D46C44881
:102D200084420BD0C348844208D0C348844205D0B3
:102D3000C248844202D0C248844200D105E040F239
:102D4000DF11AFF26C1001F02BFA0F2D00DC05E063
:102D50004FF4F071AFF2801001F022FA208A4FF6A2
:102D6000F07108402082208A2843208270BD70B50F
:102D700004460D46AE4884420BD0AE48844208D08B
:102D8000AD48844205D0AD48844202D0AC4884426C
:102D900000D105E04FF4FB71AFF2C41001F000FA6E
:102DA00015B1B5F5006F00D105E040F2F711AFF2B3
:102DB000D81001F0F5F9A0894FF2FF710840A08109
:102DC000A0892843A08170BD70B504460D4698487F
:102DD00084420BD09748844208D09748844205D05B
:102DE0009648844202D09648844200D105E040F2E1
:102DF0000921AFF21C2001F0D3F90DB1012D00D152
:102E000005E040F20A21AFF2302001F0C9F925B106
:102E1000A08940F00200A08104E0A0894FF6FD7176
:102E20000840A08170BD70B504460D4680488442BC
:102E30000BD08048844208D07F48844205D07F4828
:102E4000844202D07E48844200D105E040F226212F
:102E5000AFF27C2001F0A4F90DB1202D00D105E0E6
:102E600040F22721AFF2902001F09AF9208A4FF624
:102E7000DF7108402082208A2843208270BD70B50F
:102E800004460D466A4884420BD06A48844208D002
:102E90006948844205D06948844202D06848844227
:102EA00000D105E040F23921AFF2D42001F078F9E9
:102EB0000DB1012D00D105E040F23A21AFF2E8203A
:102EC00001F06EF925B1208A40F48040208204E0B0
:102ED000208A4BF6FF710840208270BD70B5044611
:102EE0000D46534884420BD05248844208D0524881
:102EF000844205D05148844202D05148844200D1D6
:102F000005E040F25321AFF2303001F049F9B5F558
:102F1000007F00DA05E04FF41571AFF2443001F0A4
:102F20003FF9C5F30800A08070BD10B504464048C5
:102F300084420BD03F48844208D03F48844205D0A9
:102F40003E48844202D03E48844200D105E04FF41E
:102F50001971AFF27C3001F023F9A088C0F30800AA
:102F600010BD10B50446324884420BD0314884422B
:102F700008D03148844205D03048844202D03048DD
:102F8000844200D105E04FF41D71AFF2B43001F07E
:102F900007F9A08940F00100A08110BD70B504467A
:102FA0000D462348844205D02248844202D022485C
:102FB000844200D105E04FF42171AFF2E43001F01A
:102FC000EFF8208BC0B22083208B40EA05202083BD
:102FD00070BD70B504460D46154884420BD01548A7
:102FE000844208D01448844205D01448844202D058
:102FF0001348844200D105E04FF42671AFF2284017
:1030000001F0CEF8208B00F47F402083208B2843F2
:10301000208370BD70B504460D460548844205D036
:103020000448844202D0044884420BD110E00000DE
:10303000003801400044004000480040004C00407F
:103040000050004040F2AB21AFF2744001F0A8F80C
:103050000DB1012D00D105E04FF42B71AFF2884086
:1030600001F09EF825B1A08A40F02000A08204E083
:10307000A08A4FF6DF710840A08270BD70B504468B
:103080000D46F848844205D0F748844202D0F748FC
:10309000844200D105E04FF43171AFF2C44001F039
:1030A0007FF80DB1012D00D105E040F2C521AFF24E
:1030B000D84001F075F825B1A08A40F01000A08238
:1030C00004E0A08A4FF6EF710840A08270BD70B591
:1030D00004460D46E34884420BD0E348844208D0BE
:1030E000E248844205D0E248844202D0E14884426A
:1030F00000D105E040F2DE21AFF2245001F050F89B
:103100000DB1012D00D105E040F2DF21AFF23850C2
:1031100001F046F825B1A08A40F00800A08204E042
:10312000A08A4FF6F7710840A08270BD70B50446C2
:103130000D46CC4884420BD0CB48844208D0CB48C3
:10314000844205D0CA48844202D0CA48844200D191
:1031500005E040F2FD21AFF2805001F021F80DB101
:10316000012D00D105E040F2FE21AFF2945001F0B4
:1031700017F825B1A08940F40040A08103E0A089A0
:10318000C0F30E00A08170BD70B504460D46B54871
:1031900084420BD0B448844208D0B448844205D05D
:1031A000B348844202D0B348844200D105E04FF4D2
:1031B0004671AFF2DC5000F0F3FF0DB1012D00D1EC
:1031C00005E040F21931AFF2F05000F0E9FF25B10F
:1031D000A08A40F40060A08204E0A08A4FF2FF7150
:1031E0000840A08270BD70B504460D469D488442DB
:1031F0000BD09D48844208D09C48844205D09C480E
:10320000844202D09B48844200D105E040F235312F
:10321000AFF23C6000F0C4FF042D00D005B905E01A
:1032200040F23631AFF2506000F0BAFFA08A4FF69C
:10323000FB710840A082A08A2843A08270BD70B5AF
:1032400004460D46874884420BD08748844208D004
:103250008648844205D08648844202D0854884420C
:1032600000D105E04FF45271AFF2946000F098FF86
:103270000DB1012D00D105E040F24931AFF2A86057
:1032800000F08EFF25B1A08A40F00200A08204E089
:10329000A08A4FF6FD710840A08270BD70B505464A
:1032A0000C4600266F4885420BD06F48854208D0F7
:1032B0006E48854205D06E48854202D06D488542F1
:1032C00000D105E040F26E31AFF2F46000F068FF2B
:1032D000012C13D0802C11D0402C0FD0202C0DD0DD
:1032E000102C0BD0B4F5807F08D0B4F5007F05D04A
:1032F000082C03D0042C01D0022C00D105E040F2B0
:103300006F31AFF22C7000F04BFFB4F5007F0FD19E
:103310005448854205D05448854202D053488542DE
:1033200000D105E040F27331AFF2547000F038FF85
:103330002888204201D0012600E00026304670BDDA
:1033400070B504460D46474884420BD04648844237
:1033500008D04648844205D04548844202D04548BA
:10336000844200D105E040F29E31AFF2947000F04B
:1033700017FF4FF69F40054201D105B105E040F22D
:103380009F31AFF2AC7000F00BFF05F40070B0F5A8
:10339000007F0FD13348844205D03348844202D0A5
:1033A0003248844200D105E040F2A331AFF2D87038
:1033B00000F0F6FEE843208070BD2DE9F047054699
:1033C0000C4600270026B046B146264885420BD061
:1033D0002548854208D02548854205D024488542A5
:1033E00002D02448854200D105E040F2C131AFF659
:1033F000180000F0D5FE282C1FD0A4F5E060273877
:103400001BD0A4F5C060263817D0A4F5A0602538DD
:1034100013D0A4F5806024380FD0A4F5006046389E
:103420000BD0B0F5927008D0B4F5587F05D0B4F544
:10343000187F02D0B4F5B07F00D105E040F2C23170
:10344000AFF66C0000F0ACFEA4F510606A3819D13C
:103450000448854205D00448854202D0034885428D
:103460000AD10FE00038014000440040004800400D
:10347000004C00400050004040F2C631AFF6A800BA
:1034800000F08EFEC4F3421804F01F06012000FA7B
:1034900006F6B8F1010F02D1A889064007E0B8F19D
:1034A000020F02D1288A064001E0A88A06402712AE
:1034B000012000FA07F7288807401EB117B14FF026
:1034C000010901E04FF000094846BDE8F0872DE909
:1034D000F04104460D4600260027244884420BD0C4
:1034E0002348844208D02348844205D0224884429D
:1034F00002D02248844200D105E040F20A41AFF6F2
:10350000281000F04DFEA5F5C06026380AD0A5F5BC
:10351000A060253806D0A5F50060463802D0B0F589
:10352000927000D105E040F20B41AFF6541000F06C
:1035300037FEA5F510606A380FD10C48844205D0DB
:103540000B48844202D00B48844200D105E040F28F
:103550000F41AFF67C1000F023FE2E120120B04088
:1035600087B2F8432080BDE8F081000000380140B8
:103570000044004000480040004C00400050004023
:1035800010B50446F74884422AD0F64814308442E5
:1035900026D0F4482830844222D0F2483C3084427D
:1035A0001ED0F048503084421AD0EE486430844235
:1035B00016D0EC487830844212D0EB4884420FD0C9
:1035C000E948143084420BD0E7482830844207D0C1
:1035D000E5483C30844203D0E3485030844200D177
:1035E00003E06F21E1A000F0DBFD20684FF6FE71E3
:1035F00008402060002020606060A060E060D94842
:10360000844208D1D7480838406840F00F00D549B7
:10361000083948608AE0D3481430844208D1D14840
:103620000838406840F0F000CE49083948607DE035
:10363000CC482830844208D1CA480838406840F451
:103640007060C8490839486070E0C6483C30844220
:1036500008D1C4480838406840F47040C14908396E
:10366000486063E0BF485030844208D1BD48083804
:10367000406840F47020BB490839486056E0B948BA
:103680006430844208D1B7480838406840F470007C
:10369000B4490839486049E0B2487830844208D1DA
:1036A000B0480838406840F07060AE49083948605A
:1036B0003CE0AD48844206D1001F006840F00F0096
:1036C000211F086032E0A8481430844208D1A6487F
:1036D000001F006840F0F000A349091F086025E0C2
:1036E000A1482830844208D19F48001F006840F458
:1036F00070609D49091F086018E09B483C30844277
:1037000008D19948001F006840F470409649091F8D
:1037100008600BE094485030844207D19248001F63
:10372000006840F470209049091F086010BD70B512
:1037300005460C4600268B4885422AD0894814301D
:10374000854226D087482830854222D085483C30A3
:1037500085421ED08348503085421AD0814864305B
:10376000854216D07F487830854212D07E48854207
:103770000FD07D48143085420BD07B4828308542DD
:1037800007D079483C30854203D077485030854295
:1037900000D103E0CF2175A000F002FDA068102841
:1037A00001D0A06800B903E0D02170A000F0F8FCBF
:1037B000E06820B1E068B0F5803F00D203E0D1219D
:1037C0006AA000F0EDFC2069402801D0206900B912
:1037D00003E0D22165A000F0E3FC6069802801D0FD
:1037E000606900B903E0D32160A000F0D9FCA069B2
:1037F00038B1A069B0F5807F03D0A069B0F5007F33
:1038000000D103E0D42159A000F0CAFCE06938B12E
:10381000E069B0F5806F03D0E069B0F5006F00D1CA
:1038200003E0D52151A000F0BBFC206A202801D084
:10383000206A00B903E0D6214CA000F0B1FC606A18
:10384000B0F5405F09D0606AB0F5005F05D0606AEE
:10385000B0F5805F01D0606A00B903E0D72143A0D2
:1038600000F09EFCA06AB0F5804F01D0A06A00B9BC
:1038700003E0D8213DA000F093FC2E6847F6F070DD
:103880008643216AA06808432169084361690843A7
:10389000A1690843E1690843616A0843A16A0843D2
:1038A00006432E60E06868602068A8606068E86091
:1038B00070BD0021016041608160C16001614161B2
:1038C0008161C161016241628162704770B50446E5
:1038D0000D46244884422AD022481430844226D0FF
:1038E00020482830844222D01E483C3084421ED0DA
:1038F0001C48503084421AD01A486430844216D092
:1039000018487830844212D0174884420FD01648A5
:10391000143084420BD014482830844207D0124817
:103920003C30844203D010485030844200D104E03F
:1039300040F229110DA000F033FC0DB1012D00D192
:1039400004E04FF4957109A000F02AFC25B120682D
:1039500040F00100206004E020684FF6FE7108404E
:10396000206070BD08000240080402404C69627289
:1039700061726965735C53544D3332463130785F00
:103980005374645065726970685F447269766572D9
:103990005C7372635C73746D3332663130785F646C
:1039A0006D612E630000000070B504460D4616469A
:1039B000FE4884422AD0FD481430844226D0FB4879
:1039C0002830844222D0F9483C3084421ED0F74847
:1039D000503084421AD0F5486430844216D0F348FF
:1039E0007830844212D0F24884420FD0F04814302C
:1039F00084420BD0EE482830844207D0EC483C305B
:103A0000844203D0EA485030844200D105E040F2BD
:103A10004911AFF2A80000F0C3FB35F00E0001D150
:103A200005B105E04FF4A571AFF2C00000F0B8FB9E
:103A30000EB1012E00D105E040F24B11AFF2D400DF
:103A400000F0AEFB1EB120682843206002E0206831
:103A5000A843206070BD70B504460D46D34884422B
:103A60002AD0D2481430844226D0D048283084420C
:103A700022D0CE483C3084421ED0CC4850308442C4
:103A80001AD0CA486430844216D0C848783084427C
:103A900012D0C74884420FD0C548143084420BD09E
:103AA000C3482830844207D0C1483C30844203D008
:103AB000BF485030844200D105E04FF4B271AFF2FC
:103AC000541000F06DFB656070BD10B50446B7483A
:103AD00084422AD0B5481430844226D0B3482830D6
:103AE000844222D0B1483C3084421ED0AF4850308E
:103AF00084421AD0AD486430844216D0AB48783046
:103B0000844212D0AA4884420FD0A948143084427B
:103B10000BD0A7482830844207D0A5483C308442C7
:103B200003D0A3485030844200D105E04FF4BB716C
:103B3000AFF2C81000F034FB606880B210BD70B501
:103B4000044600250026012C7ED0022C7CD0042CBB
:103B50007AD0082C7ED0102C7CD0202C7AD0402C0F
:103B600078D0802C76D0B4F5807F73D0B4F5007F08
:103B700070D0B4F5806F6DD0B4F5006F6AD0B4F535
:103B8000805F67D0B4F5005F64D0B4F5804F61D03A
:103B9000B4F5004F5ED0B4F5803F5BD0B4F5003F84
:103BA00058D0B4F5802F55D0B4F5002F52D0B4F5CD
:103BB000801F4FD0B4F5001F4CD0B4F5800F49D012
:103BC000B4F5000F46D0B4F1807F43D0B4F1007F4C
:103BD00040D0B4F1806F3DD0B4F1006F3AD0754859
:103BE000844237D0A4F18050801E33D0801E31D063
:103BF000001F2FD008382DD010382BD0203829D0D6
:103C0000403827D06B48FF30844223D06A48844232
:103C100020D06A4884421DD0694884421AD0B4F149
:103C2000102F17D04FEAF030844213D065488442F9
:103C300010D0654884420DD0644884420AD064485C
:103C4000844207D0634800E004E0844202D0624826
:103C5000844200D105E040F2B711AFF2F02000F04D
:103C60009FFA14F0805F03D051480838066802E0DC
:103C70004E4808380668264201D0012500E000259C
:103C8000284670BD10B5044614F0704F02D053485A
:103C9000044201D104B105E040F20E21AFF234300C
:103CA00000F07EFA14F0805F03D04148001F0460EA
:103CB00002E03E480838446010BD70B50446002557
:103CC0000026012C70D0022C6ED0042C6CD0082C55
:103CD0006AD0102C68D0202C66D0402C64D0802C68
:103CE00062D0B4F5807F5FD0B4F5007F5CD0B4F5CE
:103CF000806F59D0B4F5006F56D0B4F5805F53D0C3
:103D0000B4F5005F7FD0B4F5804F7CD0B4F5004FA0
:103D100079D0B4F5803F76D0B4F5003F73D0B4F5D8
:103D2000802F70D0B4F5002F6DD0B4F5801F6AD00D
:103D3000B4F5001F67D0B4F5800F64D0B4F5000F60
:103D400061D0B4F1807F5ED0B4F1007F5BD0B4F17C
:103D5000806F58D0B4F1006F55D01648844252D0CD
:103D6000A4F18050801E4ED0801E4CD0001F4AD03F
:103D7000083848D0103846D0203844D0403842D097
:103D80000C48FF3084423ED00B4884423BD00B4865
:103D9000844238D00A48844235D0B4F1102F32D052
:103DA0004FEAF03084421BE02DE0000008000240A2
:103DB000080402400100001000020010000400107E
:103DC00000080010004000100080001000000110EA
:103DD0000000021000000410000008100000F0EFC6
:103DE00011D0214884420ED0204884420BD0204874
:103DF000844208D01F48844205D01F48844202D024
:103E00001E48844200D105E040F25921AFF2A4409F
:103E100000F0C6F914F0805F02D01948066801E08E
:103E200018480668264201D0012500E000252846F2
:103E300070BD10B5044614F0704F02D01248044211
:103E400001D104B105E040F2AF21AFF2E04000F053
:103E5000A7F914F0805F03D00948001D046001E059
:103E60000848446010BD00000040001000800010B1
:103E700000000110000002100000041000000810F3
:103E800000040240000002400000F0EF10B50446BC
:103E9000B4F5E06F0BD0B4F5C06F08D0B4F5A06FE7
:103EA00005D0B4F5806F02D0B4F5407F00D103E0B7
:103EB00063215EA000F074F96848204368490860F7
:103EC00010BD2DE9F0410446002500270F26E078BB
:103ED00010B1E078012800D103E0752153A000F073
:103EE0005FF96078102800DA03E076214FA000F037
:103EF00057F9A078102800DA03E077214BA000F0F2
:103F00004FF9E07808B35648006800F4E060C0F567
:103F1000E060050AC5F10407EE40607800FA07F595
:103F2000A078304005432D014E48227885542078F2
:103F300000F01F0101208840217849114FF0E02254
:103F400002EB8101C1F8000109E0207800F01F01B7
:103F50000120884044492278521141F82200BDE8EE
:103F6000F08170B504460D46B4F1005F02D0B4F1A3
:103F7000006F00D103E09F212CA000F011F93B4815
:103F8000854200D203E0A02128A000F009F93849B9
:103F900005EA010020433249091F086070BD70B571
:103FA00004460D46102C03D0042C01D0022C00D165
:103FB00003E0B2211DA000F0F3F80DB1012D00D1F6
:103FC00003E0B32119A000F0EBF83DB12448001D37
:103FD000006820432249091D086006E02048001DB2
:103FE0000068A0431E49091D086070BD10B5044655
:103FF000042C01D0601D00D103E0CA210BA000F009
:10400000CFF8042C08D14FF0E020006940F0040004
:104010004FF0E021086107E04FF0E020006920F058
:1040200004004FF0E021086110BD00004C6962728D
:1040300061726965735C53544D3332463130785F39
:104040005374645065726970685F44726976657212
:104050005C7372635C6D6973632E63000000FA0524
:104060000CED00E000E400E080E100E0FFFF0F0065
:1040700080FFFF1F0948804709480047FEE7FEE729
:10408000FEE7FEE7FEE7FEE7FEE7FEE7FEE7FEE708
:1040900004480549054A064B70470000A103000883
:1040A00051010008F8560020F85C0020F858002064
:1040B000F858002010B5044603F088FC1BF0EAFB1A
:1040C00010F025FD2BA008F092FC01F05EF810BD69
:1040D00008B501213C20FCF770FE4FF4FE50ADF80E
:1040E000000003208DF8020010208DF803006946BF
:1040F0002648FDF7ABFE48F28000ADF80000032033
:104100008DF8020010208DF8030069462048FDF765
:104110009DFE80211E48FEF776F84FF48040ADF8F2
:10412000000003208DF8020004208DF8030069468A
:104130001748FDF78BFE08BD1CB5FFF7C9FF00202F
:1041400003E0002213490A54401C0828F9DB14201C
:1041500006214FF400630022CDE90010AFF2AB015D
:104160000DA00AF04DFB044614B120460AF0E1FA16
:1041700000201CBD5443502F495020696E6974695A
:10418000616C697A6564210A00000000001001403A
:10419000000C01408B1C0020696E69740000000057
:1041A00004460D46A6A008F022FC2146AEA008F069
:1041B0001EFC2946B1A008F01AFC00BFFEE710B5AE
:1041C0008CB00024B248B349086003F015FBB04836
:1041D00012380068002838D0AD481238006801282D
:1041E00033D0AB4812380268ABA1B1481EF0F2F9E7
:1041F0000120A74912390860C0200871A820487121
:10420000012088710A20C871C0200872A820487255
:1042100001208872C872FF200873487388730020D9
:10422000C8734FF4FA6008824FF4E130C1F89B0084
:10423000002003E0002296490A54401C0828F9DBBC
:104240009CA1934808301EF0C1FB91481238007BB6
:10425000FF2821D18E481238407BFF281CD18C4882
:104260001238C07BFF2817D089481238008A98B1CD
:1042700087481238008AA0F57F41FF390CD0844965
:104280001239D1F89B0003F027FB28B1804812387F
:1042900090F89F00FF285CD17D481238008A7C4945
:1042A0001239C97B7A4A123A927B794B123B5B7B7B
:1042B000CDE90732CDE9091075481238007B744901
:1042C0001239C97A724A123A927A714B123B5B7A6E
:1042D000CDE90332CDE905106D481238007A6C49FA
:1042E0001239C9796A4A123A9279CDE900210290CD
:1042F0006748123843790279704971481EF06AF9AB
:10430000C020634912390871A820487101208871C2
:104310000A20C871C0200872A82048720120887243
:10432000C872FF200873487388730020C87361A1A6
:10433000574808301EF04AFB4FF4FA6054491239CE
:1043400008824FF4E130C1F89B00012081F89F0002
:1043500001244F481238018AC27B807B4C4B123BB0
:104360005B7BCDE90730CDE9092149481238007B54
:1043700047491239C97A464A123A927A444B123B5B
:104380005B7ACDE90332CDE9051041481238007A55
:104390003F491239C9793E4A123A9279CDE9002152
:1043A00002903B48123843790279444960314548CC
:1043B0001EF010F90CB103F00AFA0CB010BD08B5EC
:1043C00001210420FCF7F9FC4FF48050ADF8000007
:1043D00003208DF8020010208DF8030069463A484A
:1043E000FDF734FD4FF480513748FDF737FF03F0F8
:1043F0004DFA41F6583003F013FAFFF7E0FE03F0F0
:10440000ACFA08F0F5FA06F0FDF809F050FD0AF0F4
:1044100034FE2E492E4808F0D8FE09F000FFFFF7C1
:104420008BFE0AF036FE06F0A0FB09F014FF08BD73
:1044300010B50AF093FFFFF7C2FF002010BD000087
:104440000A0D2057726F6E6720706172616D65741E
:1044500065722076616C756520646574656374654A
:1044600064206F6E0D0A000020202020202020668E
:10447000696C65202025730D0A0000002020202093
:104480002020206C696E65202025640D0A00000044
:104490008B1C00208C040020726573657420736986
:1044A0002E646863703D307825780D0A00000000A6
:1044B000040800204446526F626F7400044B0208E7
:1044C0008408002084090020000801400000012029
:1044D000F85C0020002200EB8003590000BF531C51
:1044E0001A468B4200D97047F9E710B500240DE059
:1044F000FE480068005D20B12146492001F086FE9B
:1045000003E02146492001F09BFE641C082CEFDBF0
:104510000021F7A006F0B1FDF849086008460068E0
:1045200008B9012010BD0021F5A006F0A6FDF9494B
:1045300008600846006808B90120F3E7F649F74823
:1045400006F030FA0020EDE770B504460D46F3485A
:104550002B4622460021466BB04770BD70B504461D
:104560000D462A46214681201DF086FD70BD70B59E
:1045700004460D4600232A462146E94800680FF00C
:1045800041F870BD2DE9F04706460F461446E54D4B
:104590004FF0FF3A05F10508681D00EB040900BF64
:1045A00055202870AA206870DF4890F89F00A870F6
:1045B000EC70FF202871F92C04DA22463946404677
:1045C0001EF092FAA11DD74803F096F989F8000071
:1045D000542E05D121463846FFF7C9FF82460EE02A
:1045E000552E05D1A11DCF48FFF7B8FF824606E042
:1045F000432E04D1A11DCB48FFF7A6FF82465046AB
:10460000BDE8F0872DE9F041ACB004460025002755
:104610002078542805D02078552802D020784328C7
:104620001BD1267860784F2801D1012703E06078FC
:10463000432800D10027A078A0F13105002D06DB2A
:10464000082D04DA27B12946304601F0DFFD18E1D4
:104650002946304601F0F4FD13E1207847287CD14B
:104660000322B2A120461EF085F930B9AE4A1A32B3
:10467000AFA10CA81DF0AEFFF0E00322B0A12046D0
:104680001EF078F928B9AFA2B0A10CA81DF0A2FFC6
:10469000E4E00322B2A120461EF06CF9002844D1C8
:1046A00092480068C07908B1AEA000E0AEA08F4982
:1046B0000968897909B1ABA100E0ABA18B4A126806
:1046C00052790AB1A7A200E0A7A2884B1B681B7908
:1046D0000BB1A4A300E0A4A3CDE90232CDE90410FC
:1046E00082480068C07808B19EA000E09EA07F4983
:1046F0000968897809B19BA100E09BA1CDE9001070
:104700007A480068407808B196A000E096A0034679
:1047100076480068007808B192A000E092A00246B6
:1047200092490CA81DF056FF98E0032290A1204664
:104730001EF020F9002864D17B480068D8B37A487D
:10474000018A8C480068000E8A4A1268C2F3074248
:10475000884B1B88C3F3072300E08AE0CDE90732CA
:10476000CDE909018348017883480068000E824A38
:104770001268C2F30742804B1B88C3F30723CDE9BD
:104780000332CDE905017C4801787C480068000EC1
:104790007A4A1268C2F30742CDE9002002917748B5
:1047A0000088C0F3072375480278704974310CA85B
:1047B0001DF010FF52E0FFE75B48018AC27B807B5F
:1047C000594B5B7BCDE90730CDE909215648017B88
:1047D000C27A807A544B5B7ACDE90330CDE905216A
:1047E0005148017AC079504A9279CDE9002002916E
:1047F0004D48437902795D4974310CA81DF0EAFEF9
:104800002CE003225EA120461EF0B4F838B94648D9
:10481000D0F89B205BA10CA81DF0DCFE1EE003225B
:104820005DA120461EF0A6F838B93F4890F89F20B9
:104830005AA10CA81DF0CEFE10E003225CA1204678
:104840001EF098F850B93848006808B145A000E05B
:1048500045A0024657A10CA81DF0BCFE0CA81EF0F6
:10486000D9F800F1010842460CA95420FFF78AFE4E
:1048700007E0032253A120461EF07CF808B900F09F
:1048800033FD2CB0BDE8F0811CB500204FF48061F1
:104890000C234D4ACDE900104CA14D4807F099FB7F
:1048A0001CBDCCB000250026FFF7EEFFFFF71DFE74
:1048B000F5E14FF4807200210CA807F076FF02E0CA
:1048C00001200AF0EEF800234FF480720CA9404852
:1048D00007F0A8FD0028F3D19DF8300054287DD0C2
:1048E0009DF83000552879D074E077E08C040020E2
:1048F0007469636B4D7574657800000038000020A2
:104900006A736F6E526573706F6E73654D75746503
:10491000780000003C000020E76000080043002011
:1049200034000020840E0020791C002047524E00E5
:104930007B226E616D65223A222573227D00000084
:104940004752560056312E30550000007B227665C6
:104950007273696F6E223A222573227D0000000077
:10496000475253006F6E00006F666600BC4B020832
:10497000474E4300C4040020C8040020C0040020A7
:10498000474252007B226261756472617465223A0B
:10499000222564227D000000473441007B22343808
:1049A0003561646472223A222564227D0000000091
:1049B000474448007B2264686370223A22257322B0
:1049C0007D00000052454200840A00206D71740091
:1049D000841300209DF8300043281BD19DF83040FF
:1049E0009DF831004F2801D1012604E09DF83100E7
:1049F000432800D100269DF83200A0F1310526B1F0
:104A00002946204601F002FC49E12946204601F0F2
:104A100017FC44E19DF83000472871D10322AFF222
:104A2000F4010CA81DF0A6FF30B9FC4AAFF200114A
:104A30000CA81DF0CFFD1FE10322AFF2FC010CA872
:104A40001DF098FF38B9AFF20412AFF200110CA8B4
:104A50001DF0C0FD10E10322AFF2FC010CA81DF017
:104A600089FF002855D1EE480068C07910B1AFF237
:104A70000C1001E0AFF21010E9490968897911B111
:104A8000AFF2201101E0AFF22011E54A126852792D
:104A900012B1AFF2301201E0AFF23412E04B1B68FA
:104AA0001B7913B1AFF2441301E0AFF24413CDE927
:104AB0000232CDE90410DA480068C07810B1AFF2D4
:104AC0005C1001E0AFF26010D5490968897811B136
:104AD000AFF2701101E0AFF27011CDE90010D048D3
:104AE0000068407810B1AFF2841001E0AFF2881096
:104AF0000346CB480068007818B1AFF2981002E086
:104B0000C4E0AFF29C100246C6490CA81DF062FD3D
:104B1000B2E00322AFF2A8110CA81DF02BFF002871
:104B200072D1BE481A380068D0B3BC481A38018A1E
:104B3000BD480068000EBC4A1268C2F30742BA4B77
:104B40001B88C3F30723CDE90732CDE90901B64835
:104B50000178B6480068000EB44A1268C2F30742F2
:104B6000B24B1B88C3F30723CDE90332CDE905011E
:104B7000AE480178AE480068000EAD4A1268C2F334
:104B80000742CDE900200291A9480088C0F307231D
:104B9000A7480278A34974310CA81DF01BFD6BE0F7
:104BA000FFE79E481A38008A9C491A39CA7B897BDC
:104BB0009A4B1A3B5B7BCDE90731CDE90920974839
:104BC0001A38017BC07A954A1A3A927A934B1A3B6B
:104BD0005B7ACDE90332CDE9050190481A38007AB5
:104BE0008E491A39C9798D4A1A3A9279CDE900214C
:104BF00002908A481A38437902798A4974310CA89C
:104C00001DF0E8FC38E0FFE70322AFF28C210CA88E
:104C10001DF0B0FE48B981481A38D0F89B20AFF299
:104C20009C210CA81DF0D6FC26E00322AFF29821AF
:104C30000CA81DF09FFE48B978481A3890F89F20BC
:104C4000AFF2A8210CA81DF0C5FC15E00322AFF2BD
:104C5000A0210CA81DF08EFE70B970481A380068AB
:104C600010B1AFF2003001E0AFF204300246AFF213
:104C7000BC210CA81DF0AEFC0CA81DF0CBFE471CFF
:104C80003A460CA95420FFF77DFC08E00322AFF25E
:104C9000CC210CA81DF06EFE08B900F025FB08E63B
:104CA0008CB05E481A38006838B102E0642009F020
:104CB000F8FE5F4800680028F8D00FE000220221CB
:104CC00008460EF0EDFC0446401C03D159A007F045
:104CD0008EFE00E003E0642009F0E3FEEEE700BF93
:104CE0004E481A38006890B14C481A38807A5049BA
:104CF000096800EA114000904D480088C0F307237E
:104D00004B4802784FA103A81DF064FC0FE0434814
:104D10001A38807941491A39897A084000903F4809
:104D20001A384379027947A103A81DF053FC0220E9
:104D30008DF8210041F2767010F0CEFAADF8220025
:104D400003A819F025FC0990082200210AA807F001
:104D50002CFD1BE031481A38008AAFF218432F4A65
:104D60003CA100904B481DF035FC4A481DF052FE16
:104D70000546102008A900232A46CDE90010454920
:104D800020460EF0B3FB642009F08BFEE2E78AB008
:104D90003DE10022012102200EF082FC0646401C6B
:104DA00006D124A007F023FE0A2009F07AFE2EE1A6
:104DB00002208DF8150019481A38008A00280EDDE7
:104DC00016481A38008A4FF6FF71884207DA1349ED
:104DD0001A39088A10F080FAADF8160005E04FF491
:104DE000FA6010F079FAADF816000020069008225B
:104DF000114607A807F0D9FC102205A930460EF08D
:104E000082F8401C50D124A007F0F1FD30460EF08E
:104E1000D8F80A2009F045FEF9E00000931C0020B4
:104E20008C040020BC4B0208C4040020C8040020ED
:104E3000C0040020536F636B6574206572726F72DB
:104E40000A00000025642E25642E25642E32353597
:104E5000000000007B2244657369676E223A224499
:104E600046526F626F74222C226E616D65223A2267
:104E70002573222C2276657273696F6E223A222581
:104E800073222C22746370506F7274223A25647DF1
:104E900000000000B8130020556E61626C6520743C
:104EA0006F2062696E640A00012130460EF020F91D
:104EB000401C09D1E0A007F09AFD30460EF081F8C1
:104EC0000A2009F0EEFDA2E01020099009AA01A92C
:104ED00030460DF0CFFEDC49086008460068002827
:104EE00006DC30460EF06DF80A2009F0DAFD8EE09F
:104EF000BDF8060010F0F6F9074602A819F0A8FB65
:104F000080463A464146D1A007F071FD7CE000237F
:104F10004FF48062D649CC4800680EF0D6FA0446B9
:104F2000002C0ADCD3A007F062FDC74800680EF031
:104F300048F830460EF045F867E0D248008868B17E
:104F400010F095F90746D0480068381A642804D351
:104F50000020CE490870CB49088000BFC9480088AE
:104F6000B0B9C3480078552807D1C1484078AA286D
:104F700003D10020C649087006E0BD4800787B28B0
:104F800002D10120C249087010F071F9BE490860D1
:104F9000BC4800882044B0F5806F05DB0020B9498B
:104FA0000880BA4908700CE0B849B64A12888818D7
:104FB0002246AF491DF098FDB24800882044B1490F
:104FC0000880B0480288B149B148007800F092FFEB
:104FD00005466DB9AB480388AC4A5421AC4800780B
:104FE00000F06AFE0020A9490870A64908800AE07E
:104FF000012D00D108E0022D05D10020A349087041
:10500000A049088000E000BF81E700BF00BFC0E604
:1050100008B501210420FBF7D0FE4FF48050ADF815
:10502000000003208DF8020010208DF8030069466F
:105030009848FCF70BFF4FF480519648FDF70EF9A6
:105040000A2009F02EFD04208DF8030069469148DE
:10505000FCF7FCFE1DF099F81DF0AFF81CF0DDFF29
:1050600010E0642009F01DFD0121084603F05CFDFD
:1050700010F0040F03D188A007F0B9FC02E08CA067
:1050800007F0B5FCEDE70025012600274FF00208E8
:105090007AE080218B48FDF713F807464FF48041F2
:1050A0008848FCF798FF0446012E04D11CB900255E
:1050B0004FF002080BE056B9012C08D1802181483D
:1050C000FDF7A1F8142D01DB00F00EF90025142DD9
:1050D00001DB4FF0060886B97CB96D1C95FBF8F032
:1050E00008FB105048B927B180217648FDF7B6F883
:1050F00003E080217348FDF786F8C82D40D1802158
:105100007048FDF7ABF800BF4FF480416D48FCF7E5
:1051100062FF0028F8D04FF0FF306B490860C020D4
:105120000871A8204871012088710A20C871C02028
:105130000872A820487201208872C872FF20087384
:10514000487388730020C8734FF4FA6008824FF4E4
:10515000E130C1F89B00012081F89F005BA15A4813
:105160001A301DF033FC002004E0002256491231B1
:105170000A54401C0828F8DB02F029FB00F0B4F8C0
:105180002646052009F08DFC83E72DE9FC4114201B
:1051900010210B020022CDE90010AFF6F9014DA05D
:1051A00009F02EFB8046B8F1000F02D0404609F00E
:1051B000C0FA142010210B020022CDE90010AFF23A
:1051C000314145A009F01CFB044614B1204609F00A
:1051D000B0FA14201021CB010022CDE90010AFF26B
:1051E000CF113EA009F00CFB054615B1284609F089
:1051F000A0FA14201021CB010022CDE90010AFF25B
:10520000791137A009F0FCFA064616B1304609F0CC
:1052100090FA14201021CB010022CDE90010AFF24A
:105220007F5130A009F0ECFA074617B1384609F073
:1052300080FABDE8FC8100004C697374656E2065DE
:1052400072726F720A000000340000204920676FFC
:1052500074206120636F6E6E656374696F6E206683
:10526000726F6D20282573202C202564290D0A00DB
:10527000840F0020646973636F6E6E6563740D0A3A
:1052800000000000400400204404002040000020F2
:10529000420400200008014065746820646973635B
:1052A0006F6E6E656374212121210D0A00000000DC
:1052B00065746820636F6E6E656374212121210D12
:1052C0000A000000000C0140791C00204446526F87
:1052D000626F74007430000074310000743200009A
:1052E000743300007434000045F25550FCF7F8F8B0
:1052F0000020FCF704F90020FCF718F9FCF723F96B
:10530000FCF726F900BFFEE72DE9F04F87B00E4607
:105310001446FBA0006805900020049000278046FA
:1053200081468246834603900290052E6FD00A2E56
:105330000AD00B2E07D121681422F2481DF0D4FBAD
:105340000020F049C874ADE20522EFA1ED481DF040
:1053500011FB00284DD10021ED48006805F06FFFDA
:105360000120EC490870EA48006806F034F8E54886
:10537000407931280BDBE3484079382807DC54209A
:105380008DF81400DF4840798DF816000EE00021FA
:10539000DF48006805F053FF0120DE490870DE4950
:1053A0000870DB48006806F016F87BE22068DBA195
:1053B0001DF038FC28B94F208DF81500012004900D
:1053C00065E22068D6A11DF02DFC28B943208DF898
:1053D0001500012004905AE20021CD48006805F034
:1053E0002EFF0120CC490870C948006805F0F3FF82
:1053F00058E20322CBA1C3481DF0BCFA002846D1D5
:105400002068C9A11DF00EFC10B901273FE23FE260
:105410002068C8A11DF006FC10B94FF0010836E263
:105420002068C6A11DF0FEFB10B94FF001092EE265
:105430002068C4A11DF0F6FB10B94FF0010A26E266
:105440002068C3A11DF0EEFB10B94FF0010B1EE266
:105450002068C2A11DF0E6FB10B90120039016E2FE
:105460002068C0A11DF0DEFB10B9012002900EE201
:105470000021A748006805F0E2FE0120A549087058
:10548000A5490870A248006805F0A5FFFFE10422C5
:10549000A8A19C481DF06EFAD8B921688022B348B3
:1054A0001DF022FB0021B1481A3880F8991002F053
:1054B0008EF900219648006805F0C1FE012095494B
:1054C00008700020944908709148006805F083FF37
:1054D000DDE10622A6A18B481DF04CFA00BB206836
:1054E00019F056F805460020A0491A3908600D71D8
:1054F000280A4871280C8871280EC87102F067F9D3
:1055000000218348006805F09AFE01208149087057
:105510000020814908707E48006805F05CFFB6E114
:10552000072295A177481DF025FA00BB206819F0E5
:105530002FF8054600208D491A3908600D72280A97
:105540004872280C8872280EC87202F040F90021B7
:105550006F48006805F073FE01206E490870002056
:105560006D4908706A48006805F035FF8FE1072231
:1055700083A164481DF0FEF900BB206819F008F80B
:105580000546002079491A3908600D73280A4873C6
:10559000280C8873280EC87302F019F900215C48A2
:1055A000006805F04CFE01205A49087000205A4955
:1055B00008705748006805F00EFF68E1082264A1F2
:1055C00050481DF0D7F960BB20681DF0A8F90546CA
:1055D000284602F081F9A8B164481A38C0F89B50F7
:1055E00002F0F5F800214A48006805F028FE012085
:1055F000484908700020484908704548006805F08F
:10560000EAFE0DE000214248006805F018FE012086
:1056100040490870404908703D48006805F0DBFECD
:1056200035E107224DA137481DF0A4F968BB206879
:105630001DF075F9C5B2CDB1AB2D17D0FF2D15D02A
:105640004A481A3880F89F5002F0C1F800213048CB
:10565000006805F0F4FD01202E49087000202E4955
:1056600008702B48006805F0B6FE0DE000212848C0
:10567000006805F0E4FD01202649087026490870FD
:105680002348006805F0A7FE01E104223EA11D4861
:105690001DF070F998BB20681DF041F90546002106
:1056A0001B48006805F0CBFD01201A490870184816
:1056B000006805F090FE002D14DDB5F5803F11DA8D
:1056C0002A491A390D8202F082F800211048006838
:1056D00005F0B5FD0020104908700D48006805F080
:1056E0007AFE0BE000210A48006805F0A8FD0120C1
:1056F000094908700648006805F06DFEC7E047E0FC
:10570000202020003014002072656C6179000000B8
:105710003C00002048040020490400206F6E000077
:105720006F6666006765740072656C6179537461B9
:10573000747573006E616D650000000076657273AC
:10574000696F6E006E6574636F6E66696700000056
:1057500062617564726174650000000034383561FF
:10576000646472006468637000000000931C002091
:1057700069706164647200006761746577617900C3
:105780006E65746D61736B00706F72740000000061
:105790000422AFF23001FE481DF0ECF8D8BB002027
:1057A00000900190206800680090AFF29001684678
:1057B0001DF038FAA0B90120F649086002F007F898
:1057C0000021F548006805F03AFD0120F349087012
:1057D0000020F3490870F048006805F0FCFD29E05E
:1057E000AFF2C40168461DF01DFAA8B90020E949CE
:1057F000086001F0ECFF0021E748006805F01FFD9C
:105800000120E64908700020E5490870E248006878
:1058100005F0E1FD0EE00EE00021DF48006805F034
:105820000EFD0120DD490870DD490870DA48006886
:1058300005F0D1FD2BE00622DAA1D5481DF09AF83B
:1058400008B9FFF751FD0522D8A1D1481DF092F803
:1058500070B90021D048006805F0F1FC0120CF4963
:105860000870CF490870CC48006805F0B4FD0EE020
:105870000021C948006805F0E2FC0120C749087012
:105880000220C7490870C448006805F0A4FD09E07B
:10589000216860680A460346CDE90010C5A007F0FC
:1058A000A6F800BF00BF7FB9B8F1000F0CD1B9F165
:1058B000000F09D1BAF1000F06D1BBF1000F03D1DF
:1058C000039808B90298B8B3052527B1BEA105A869
:1058D0001DF07CF82CE0B8F1000F04D0BBA105A8A6
:1058E0001DF074F824E0B9F1000F04D0B8A105A8A8
:1058F0001DF06CF81CE0BAF1000F04D0B5A105A8AA
:105900001DF064F814E0BBF1000F04D0B2A105A8AB
:105910001DF05CF80CE0039820B1B0A105A81DF0C3
:1059200055F805E0029818B1ADA105A81DF04EF894
:1059300005A8FEF767FE09E0FFE7AFF23C2105A8E6
:105940001DF070F910B105A8FEF75CFE012007B04C
:10595000BDE8F08F2DE9F04105460C4616461F467E
:105960008C48006808B1012000E000209D490870C3
:1059700001222046FEF706FEBDE8F0812DE9F04148
:1059800007460D46144698462646707908B1012010
:1059900000E000207F49086001F019FF01229249D0
:1059A0002846FEF7EFFDBDE8F0812DE9F84380467B
:1059B0000D46144699460120009027467E79AB2E6D
:1059C00006D0744880F89F6001F001FF002000902D
:1059D000012269462846FEF7D5FDBDE8F8832DE98A
:1059E000F84380460D46144699460120009027460C
:1059F000D7F805000FF089FC0646304601F06CFF31
:105A000030B16448C0F89B600020009001F0DFFED8
:105A1000012269462846FEF7B5FDBDE8F8832DE969
:105A2000F04106460C46174698460625062D00DD31
:105A300000BF2A466DA16F481DF056F82A466D49F1
:105A40002046FEF79FFDBDE8F0812DE9F0410646B6
:105A50000C46174698464F481A301CF0DBFF401C96
:105A6000C5B24C481A301CF0D5FF401CC0B20546E8
:105A7000202800DD20252A4646491A315E481DF0BF
:105A800033F82A465C492046FEF77CFDBDE8F081EC
:105A90002DE9F84381460D4617461E460120009029
:105AA00007F10508B01F84B274B1202C0CDC601E15
:105AB00018F8000040B9414636481A301CF086FFFD
:105AC00001F085FE00200090012269462846FEF77D
:105AD00059FDBDE8F8832DE9F04105460C46164610
